{
  "_format": "hh-sol-artifact-1",
  "contractName": "EncodeNFT",
  "sourceName": "contracts/ENFT.sol",
  "abi": [
    {
      "inputs": [],
      "stateMutability": "nonpayable",
      "type": "constructor"
    },
    {
      "anonymous": false,
      "inputs": [
        {
          "indexed": true,
          "internalType": "address",
          "name": "owner",
          "type": "address"
        },
        {
          "indexed": true,
          "internalType": "address",
          "name": "approved",
          "type": "address"
        },
        {
          "indexed": true,
          "internalType": "uint256",
          "name": "tokenId",
          "type": "uint256"
        }
      ],
      "name": "Approval",
      "type": "event"
    },
    {
      "anonymous": false,
      "inputs": [
        {
          "indexed": true,
          "internalType": "address",
          "name": "owner",
          "type": "address"
        },
        {
          "indexed": true,
          "internalType": "address",
          "name": "operator",
          "type": "address"
        },
        {
          "indexed": false,
          "internalType": "bool",
          "name": "approved",
          "type": "bool"
        }
      ],
      "name": "ApprovalForAll",
      "type": "event"
    },
    {
      "anonymous": false,
      "inputs": [
        {
          "indexed": true,
          "internalType": "bytes32",
          "name": "role",
          "type": "bytes32"
        },
        {
          "indexed": true,
          "internalType": "bytes32",
          "name": "previousAdminRole",
          "type": "bytes32"
        },
        {
          "indexed": true,
          "internalType": "bytes32",
          "name": "newAdminRole",
          "type": "bytes32"
        }
      ],
      "name": "RoleAdminChanged",
      "type": "event"
    },
    {
      "anonymous": false,
      "inputs": [
        {
          "indexed": true,
          "internalType": "bytes32",
          "name": "role",
          "type": "bytes32"
        },
        {
          "indexed": true,
          "internalType": "address",
          "name": "account",
          "type": "address"
        },
        {
          "indexed": true,
          "internalType": "address",
          "name": "sender",
          "type": "address"
        }
      ],
      "name": "RoleGranted",
      "type": "event"
    },
    {
      "anonymous": false,
      "inputs": [
        {
          "indexed": true,
          "internalType": "bytes32",
          "name": "role",
          "type": "bytes32"
        },
        {
          "indexed": true,
          "internalType": "address",
          "name": "account",
          "type": "address"
        },
        {
          "indexed": true,
          "internalType": "address",
          "name": "sender",
          "type": "address"
        }
      ],
      "name": "RoleRevoked",
      "type": "event"
    },
    {
      "anonymous": false,
      "inputs": [
        {
          "indexed": true,
          "internalType": "address",
          "name": "from",
          "type": "address"
        },
        {
          "indexed": true,
          "internalType": "address",
          "name": "to",
          "type": "address"
        },
        {
          "indexed": true,
          "internalType": "uint256",
          "name": "tokenId",
          "type": "uint256"
        }
      ],
      "name": "Transfer",
      "type": "event"
    },
    {
      "stateMutability": "payable",
      "type": "fallback"
    },
    {
      "inputs": [],
      "name": "DEFAULT_ADMIN_ROLE",
      "outputs": [
        {
          "internalType": "bytes32",
          "name": "",
          "type": "bytes32"
        }
      ],
      "stateMutability": "view",
      "type": "function"
    },
    {
      "inputs": [],
      "name": "MINTER_ROLE",
      "outputs": [
        {
          "internalType": "bytes32",
          "name": "",
          "type": "bytes32"
        }
      ],
      "stateMutability": "view",
      "type": "function"
    },
    {
      "inputs": [
        {
          "internalType": "address",
          "name": "to",
          "type": "address"
        },
        {
          "internalType": "uint256",
          "name": "tokenId",
          "type": "uint256"
        }
      ],
      "name": "approve",
      "outputs": [],
      "stateMutability": "nonpayable",
      "type": "function"
    },
    {
      "inputs": [
        {
          "internalType": "address",
          "name": "owner",
          "type": "address"
        }
      ],
      "name": "balanceOf",
      "outputs": [
        {
          "internalType": "uint256",
          "name": "",
          "type": "uint256"
        }
      ],
      "stateMutability": "view",
      "type": "function"
    },
    {
      "inputs": [],
      "name": "baseURISet",
      "outputs": [
        {
          "internalType": "string",
          "name": "",
          "type": "string"
        }
      ],
      "stateMutability": "view",
      "type": "function"
    },
    {
      "inputs": [
        {
          "internalType": "uint256",
          "name": "tokenId",
          "type": "uint256"
        }
      ],
      "name": "burn",
      "outputs": [],
      "stateMutability": "nonpayable",
      "type": "function"
    },
    {
      "inputs": [
        {
          "internalType": "uint256",
          "name": "tokenId",
          "type": "uint256"
        }
      ],
      "name": "getApproved",
      "outputs": [
        {
          "internalType": "address",
          "name": "",
          "type": "address"
        }
      ],
      "stateMutability": "view",
      "type": "function"
    },
    {
      "inputs": [
        {
          "internalType": "bytes32",
          "name": "role",
          "type": "bytes32"
        }
      ],
      "name": "getRoleAdmin",
      "outputs": [
        {
          "internalType": "bytes32",
          "name": "",
          "type": "bytes32"
        }
      ],
      "stateMutability": "view",
      "type": "function"
    },
    {
      "inputs": [
        {
          "internalType": "bytes32",
          "name": "role",
          "type": "bytes32"
        },
        {
          "internalType": "address",
          "name": "account",
          "type": "address"
        }
      ],
      "name": "grantRole",
      "outputs": [],
      "stateMutability": "nonpayable",
      "type": "function"
    },
    {
      "inputs": [
        {
          "internalType": "bytes32",
          "name": "role",
          "type": "bytes32"
        },
        {
          "internalType": "address",
          "name": "account",
          "type": "address"
        }
      ],
      "name": "hasRole",
      "outputs": [
        {
          "internalType": "bool",
          "name": "",
          "type": "bool"
        }
      ],
      "stateMutability": "view",
      "type": "function"
    },
    {
      "inputs": [
        {
          "internalType": "address",
          "name": "owner",
          "type": "address"
        },
        {
          "internalType": "address",
          "name": "operator",
          "type": "address"
        }
      ],
      "name": "isApprovedForAll",
      "outputs": [
        {
          "internalType": "bool",
          "name": "",
          "type": "bool"
        }
      ],
      "stateMutability": "view",
      "type": "function"
    },
    {
      "inputs": [],
      "name": "name",
      "outputs": [
        {
          "internalType": "string",
          "name": "",
          "type": "string"
        }
      ],
      "stateMutability": "view",
      "type": "function"
    },
    {
      "inputs": [
        {
          "internalType": "uint256",
          "name": "tokenId",
          "type": "uint256"
        }
      ],
      "name": "ownerOf",
      "outputs": [
        {
          "internalType": "address",
          "name": "",
          "type": "address"
        }
      ],
      "stateMutability": "view",
      "type": "function"
    },
    {
      "inputs": [
        {
          "internalType": "bytes32",
          "name": "role",
          "type": "bytes32"
        },
        {
          "internalType": "address",
          "name": "account",
          "type": "address"
        }
      ],
      "name": "renounceRole",
      "outputs": [],
      "stateMutability": "nonpayable",
      "type": "function"
    },
    {
      "inputs": [
        {
          "internalType": "bytes32",
          "name": "role",
          "type": "bytes32"
        },
        {
          "internalType": "address",
          "name": "account",
          "type": "address"
        }
      ],
      "name": "revokeRole",
      "outputs": [],
      "stateMutability": "nonpayable",
      "type": "function"
    },
    {
      "inputs": [
        {
          "internalType": "address",
          "name": "to",
          "type": "address"
        },
        {
          "internalType": "string",
          "name": "uri",
          "type": "string"
        }
      ],
      "name": "safeMint",
      "outputs": [],
      "stateMutability": "nonpayable",
      "type": "function"
    },
    {
      "inputs": [
        {
          "internalType": "address",
          "name": "from",
          "type": "address"
        },
        {
          "internalType": "address",
          "name": "to",
          "type": "address"
        },
        {
          "internalType": "uint256",
          "name": "tokenId",
          "type": "uint256"
        }
      ],
      "name": "safeTransferFrom",
      "outputs": [],
      "stateMutability": "nonpayable",
      "type": "function"
    },
    {
      "inputs": [
        {
          "internalType": "address",
          "name": "from",
          "type": "address"
        },
        {
          "internalType": "address",
          "name": "to",
          "type": "address"
        },
        {
          "internalType": "uint256",
          "name": "tokenId",
          "type": "uint256"
        },
        {
          "internalType": "bytes",
          "name": "_data",
          "type": "bytes"
        }
      ],
      "name": "safeTransferFrom",
      "outputs": [],
      "stateMutability": "nonpayable",
      "type": "function"
    },
    {
      "inputs": [
        {
          "internalType": "address",
          "name": "operator",
          "type": "address"
        },
        {
          "internalType": "bool",
          "name": "approved",
          "type": "bool"
        }
      ],
      "name": "setApprovalForAll",
      "outputs": [],
      "stateMutability": "nonpayable",
      "type": "function"
    },
    {
      "inputs": [
        {
          "internalType": "string",
          "name": "_baseURICreated",
          "type": "string"
        }
      ],
      "name": "setBaseURI",
      "outputs": [],
      "stateMutability": "nonpayable",
      "type": "function"
    },
    {
      "inputs": [
        {
          "internalType": "bytes4",
          "name": "interfaceId",
          "type": "bytes4"
        }
      ],
      "name": "supportsInterface",
      "outputs": [
        {
          "internalType": "bool",
          "name": "",
          "type": "bool"
        }
      ],
      "stateMutability": "view",
      "type": "function"
    },
    {
      "inputs": [],
      "name": "symbol",
      "outputs": [
        {
          "internalType": "string",
          "name": "",
          "type": "string"
        }
      ],
      "stateMutability": "view",
      "type": "function"
    },
    {
      "inputs": [
        {
          "internalType": "uint256",
          "name": "tokenId",
          "type": "uint256"
        }
      ],
      "name": "tokenURI",
      "outputs": [
        {
          "internalType": "string",
          "name": "",
          "type": "string"
        }
      ],
      "stateMutability": "view",
      "type": "function"
    },
    {
      "inputs": [
        {
          "internalType": "address",
          "name": "from",
          "type": "address"
        },
        {
          "internalType": "address",
          "name": "to",
          "type": "address"
        },
        {
          "internalType": "uint256",
          "name": "tokenId",
          "type": "uint256"
        }
      ],
      "name": "transferFrom",
      "outputs": [],
      "stateMutability": "nonpayable",
      "type": "function"
    },
    {
      "stateMutability": "payable",
      "type": "receive"
    }
  ],
  "bytecode": "0x60806040526040518060400160405280601681526020017f687474703a2f2f6c6f63616c686f73743a333030302f000000000000000000008152506009908051906020019062000051929190620002b2565b503480156200005f57600080fd5b506040518060400160405280600a81526020017f456e636f6465204e4654000000000000000000000000000000000000000000008152506040518060400160405280600481526020017f454e4654000000000000000000000000000000000000000000000000000000008152508160009080519060200190620000e4929190620002b2565b508060019080519060200190620000fd929190620002b2565b505050620001156000801b336200014d60201b60201c565b620001477f9f2df0fed2c77648de5860a4cc508cd0818c85b8b8a1ab4ceeef8d981c8956a6336200014d60201b60201c565b620003c7565b6200015f82826200023f60201b60201c565b6200023b5760016007600084815260200190815260200160002060000160008373ffffffffffffffffffffffffffffffffffffffff1673ffffffffffffffffffffffffffffffffffffffff16815260200190815260200160002060006101000a81548160ff021916908315150217905550620001e0620002aa60201b60201c565b73ffffffffffffffffffffffffffffffffffffffff168173ffffffffffffffffffffffffffffffffffffffff16837f2f8788117e7eff1d82e926ec794901d17c78024a50270940304540a733656f0d60405160405180910390a45b5050565b60006007600084815260200190815260200160002060000160008373ffffffffffffffffffffffffffffffffffffffff1673ffffffffffffffffffffffffffffffffffffffff16815260200190815260200160002060009054906101000a900460ff16905092915050565b600033905090565b828054620002c09062000362565b90600052602060002090601f016020900481019282620002e4576000855562000330565b82601f10620002ff57805160ff191683800117855562000330565b8280016001018555821562000330579182015b828111156200032f57825182559160200191906001019062000312565b5b5090506200033f919062000343565b5090565b5b808211156200035e57600081600090555060010162000344565b5090565b600060028204905060018216806200037b57607f821691505b6020821081141562000392576200039162000398565b5b50919050565b7f4e487b7100000000000000000000000000000000000000000000000000000000600052602260045260246000fd5b613dd280620003d76000396000f3fe60806040526004361061014f5760003560e01c80636352211e116100b6578063b88d4fde1161006f578063b88d4fde146104ba578063c87b56dd146104e3578063d204c45e14610520578063d539139314610549578063d547741f14610574578063e985e9c51461059d57610156565b80636352211e1461038457806370a08231146103c157806391d14854146103fe57806395d89b411461043b578063a217fddf14610466578063a22cb4651461049157610156565b8063248a9ca311610108578063248a9ca31461027a5780632f2ff15d146102b757806336568abe146102e057806342842e0e1461030957806342966c681461033257806355f804b31461035b57610156565b806301ffc9a71461015857806306fdde0314610195578063081812fc146101c0578063095ea7b3146101fd578063132bf3f91461022657806323b872dd1461025157610156565b3661015657005b005b34801561016457600080fd5b5061017f600480360381019061017a9190612b0d565b6105da565b60405161018c919061304c565b60405180910390f35b3480156101a157600080fd5b506101aa6105ec565b6040516101b79190613082565b60405180910390f35b3480156101cc57600080fd5b506101e760048036038101906101e29190612ba0565b61067e565b6040516101f49190612fe5565b60405180910390f35b34801561020957600080fd5b50610224600480360381019061021f9190612a6c565b610703565b005b34801561023257600080fd5b5061023b61081b565b6040516102489190613082565b60405180910390f35b34801561025d57600080fd5b5061027860048036038101906102739190612912565b6108a9565b005b34801561028657600080fd5b506102a1600480360381019061029c9190612aa8565b610909565b6040516102ae9190613067565b60405180910390f35b3480156102c357600080fd5b506102de60048036038101906102d99190612ad1565b610929565b005b3480156102ec57600080fd5b5061030760048036038101906103029190612ad1565b610952565b005b34801561031557600080fd5b50610330600480360381019061032b9190612912565b6109d5565b005b34801561033e57600080fd5b5061035960048036038101906103549190612ba0565b6109f5565b005b34801561036757600080fd5b50610382600480360381019061037d9190612b5f565b610a51565b005b34801561039057600080fd5b506103ab60048036038101906103a69190612ba0565b610a81565b6040516103b89190612fe5565b60405180910390f35b3480156103cd57600080fd5b506103e860048036038101906103e391906128ad565b610b33565b6040516103f59190613304565b60405180910390f35b34801561040a57600080fd5b5061042560048036038101906104209190612ad1565b610beb565b604051610432919061304c565b60405180910390f35b34801561044757600080fd5b50610450610c56565b60405161045d9190613082565b60405180910390f35b34801561047257600080fd5b5061047b610ce8565b6040516104889190613067565b60405180910390f35b34801561049d57600080fd5b506104b860048036038101906104b391906129dc565b610cef565b005b3480156104c657600080fd5b506104e160048036038101906104dc9190612961565b610d05565b005b3480156104ef57600080fd5b5061050a60048036038101906105059190612ba0565b610d67565b6040516105179190613082565b60405180910390f35b34801561052c57600080fd5b5061054760048036038101906105429190612a18565b610d79565b005b34801561055557600080fd5b5061055e610ddd565b60405161056b9190613067565b60405180910390f35b34801561058057600080fd5b5061059b60048036038101906105969190612ad1565b610e01565b005b3480156105a957600080fd5b506105c460048036038101906105bf91906128d6565b610e2a565b6040516105d1919061304c565b60405180910390f35b60006105e582610ebe565b9050919050565b6060600080546105fb906135e8565b80601f0160208091040260200160405190810160405280929190818152602001828054610627906135e8565b80156106745780601f1061064957610100808354040283529160200191610674565b820191906000526020600020905b81548152906001019060200180831161065757829003601f168201915b5050505050905090565b600061068982610f38565b6106c8576040517f08c379a00000000000000000000000000000000000000000000000000000000081526004016106bf90613244565b60405180910390fd5b6004600083815260200190815260200160002060009054906101000a900473ffffffffffffffffffffffffffffffffffffffff169050919050565b600061070e82610a81565b90508073ffffffffffffffffffffffffffffffffffffffff168373ffffffffffffffffffffffffffffffffffffffff16141561077f576040517f08c379a000000000000000000000000000000000000000000000000000000000815260040161077690613284565b60405180910390fd5b8073ffffffffffffffffffffffffffffffffffffffff1661079e610fa4565b73ffffffffffffffffffffffffffffffffffffffff1614806107cd57506107cc816107c7610fa4565b610e2a565b5b61080c576040517f08c379a000000000000000000000000000000000000000000000000000000000815260040161080390613184565b60405180910390fd5b6108168383610fac565b505050565b60098054610828906135e8565b80601f0160208091040260200160405190810160405280929190818152602001828054610854906135e8565b80156108a15780601f10610876576101008083540402835291602001916108a1565b820191906000526020600020905b81548152906001019060200180831161088457829003601f168201915b505050505081565b6108ba6108b4610fa4565b82611065565b6108f9576040517f08c379a00000000000000000000000000000000000000000000000000000000081526004016108f0906132a4565b60405180910390fd5b610904838383611143565b505050565b600060076000838152602001908152602001600020600101549050919050565b61093282610909565b6109438161093e610fa4565b6113aa565b61094d8383611447565b505050565b61095a610fa4565b73ffffffffffffffffffffffffffffffffffffffff168173ffffffffffffffffffffffffffffffffffffffff16146109c7576040517f08c379a00000000000000000000000000000000000000000000000000000000081526004016109be906132e4565b60405180910390fd5b6109d18282611528565b5050565b6109f083838360405180602001604052806000815250610d05565b505050565b610a06610a00610fa4565b82611065565b610a45576040517f08c379a0000000000000000000000000000000000000000000000000000000008152600401610a3c906132c4565b60405180910390fd5b610a4e8161160a565b50565b6000801b610a6681610a61610fa4565b6113aa565b8160099080519060200190610a7c92919061267c565b505050565b6000806002600084815260200190815260200160002060009054906101000a900473ffffffffffffffffffffffffffffffffffffffff169050600073ffffffffffffffffffffffffffffffffffffffff168173ffffffffffffffffffffffffffffffffffffffff161415610b2a576040517f08c379a0000000000000000000000000000000000000000000000000000000008152600401610b21906131c4565b60405180910390fd5b80915050919050565b60008073ffffffffffffffffffffffffffffffffffffffff168273ffffffffffffffffffffffffffffffffffffffff161415610ba4576040517f08c379a0000000000000000000000000000000000000000000000000000000008152600401610b9b906131a4565b60405180910390fd5b600360008373ffffffffffffffffffffffffffffffffffffffff1673ffffffffffffffffffffffffffffffffffffffff168152602001908152602001600020549050919050565b60006007600084815260200190815260200160002060000160008373ffffffffffffffffffffffffffffffffffffffff1673ffffffffffffffffffffffffffffffffffffffff16815260200190815260200160002060009054906101000a900460ff16905092915050565b606060018054610c65906135e8565b80601f0160208091040260200160405190810160405280929190818152602001828054610c91906135e8565b8015610cde5780601f10610cb357610100808354040283529160200191610cde565b820191906000526020600020905b815481529060010190602001808311610cc157829003601f168201915b5050505050905090565b6000801b81565b610d01610cfa610fa4565b8383611616565b5050565b610d16610d10610fa4565b83611065565b610d55576040517f08c379a0000000000000000000000000000000000000000000000000000000008152600401610d4c906132a4565b60405180910390fd5b610d6184848484611783565b50505050565b6060610d72826117df565b9050919050565b7f9f2df0fed2c77648de5860a4cc508cd0818c85b8b8a1ab4ceeef8d981c8956a6610dab81610da6610fa4565b6113aa565b6000610db76008611931565b9050610dc3600861193f565b610dcd8482611955565b610dd78184611973565b50505050565b7f9f2df0fed2c77648de5860a4cc508cd0818c85b8b8a1ab4ceeef8d981c8956a681565b610e0a82610909565b610e1b81610e16610fa4565b6113aa565b610e258383611528565b505050565b6000600560008473ffffffffffffffffffffffffffffffffffffffff1673ffffffffffffffffffffffffffffffffffffffff16815260200190815260200160002060008373ffffffffffffffffffffffffffffffffffffffff1673ffffffffffffffffffffffffffffffffffffffff16815260200190815260200160002060009054906101000a900460ff16905092915050565b60007f7965db0b000000000000000000000000000000000000000000000000000000007bffffffffffffffffffffffffffffffffffffffffffffffffffffffff1916827bffffffffffffffffffffffffffffffffffffffffffffffffffffffff19161480610f315750610f30826119e7565b5b9050919050565b60008073ffffffffffffffffffffffffffffffffffffffff166002600084815260200190815260200160002060009054906101000a900473ffffffffffffffffffffffffffffffffffffffff1673ffffffffffffffffffffffffffffffffffffffff1614159050919050565b600033905090565b816004600083815260200190815260200160002060006101000a81548173ffffffffffffffffffffffffffffffffffffffff021916908373ffffffffffffffffffffffffffffffffffffffff160217905550808273ffffffffffffffffffffffffffffffffffffffff1661101f83610a81565b73ffffffffffffffffffffffffffffffffffffffff167f8c5be1e5ebec7d5bd14f71427d1e84f3dd0314c0f7b2291e5b200ac8c7c3b92560405160405180910390a45050565b600061107082610f38565b6110af576040517f08c379a00000000000000000000000000000000000000000000000000000000081526004016110a690613164565b60405180910390fd5b60006110ba83610a81565b90508073ffffffffffffffffffffffffffffffffffffffff168473ffffffffffffffffffffffffffffffffffffffff16148061112957508373ffffffffffffffffffffffffffffffffffffffff166111118461067e565b73ffffffffffffffffffffffffffffffffffffffff16145b8061113a57506111398185610e2a565b5b91505092915050565b8273ffffffffffffffffffffffffffffffffffffffff1661116382610a81565b73ffffffffffffffffffffffffffffffffffffffff16146111b9576040517f08c379a00000000000000000000000000000000000000000000000000000000081526004016111b0906130e4565b60405180910390fd5b600073ffffffffffffffffffffffffffffffffffffffff168273ffffffffffffffffffffffffffffffffffffffff161415611229576040517f08c379a000000000000000000000000000000000000000000000000000000000815260040161122090613124565b60405180910390fd5b611234838383611ac9565b61123f600082610fac565b6001600360008573ffffffffffffffffffffffffffffffffffffffff1673ffffffffffffffffffffffffffffffffffffffff168152602001908152602001600020600082825461128f91906134ca565b925050819055506001600360008473ffffffffffffffffffffffffffffffffffffffff1673ffffffffffffffffffffffffffffffffffffffff16815260200190815260200160002060008282546112e691906133e9565b92505081905550816002600083815260200190815260200160002060006101000a81548173ffffffffffffffffffffffffffffffffffffffff021916908373ffffffffffffffffffffffffffffffffffffffff160217905550808273ffffffffffffffffffffffffffffffffffffffff168473ffffffffffffffffffffffffffffffffffffffff167fddf252ad1be2c89b69c2b068fc378daa952ba7f163c4a11628f55a4df523b3ef60405160405180910390a46113a5838383611ace565b505050565b6113b48282610beb565b611443576113d98173ffffffffffffffffffffffffffffffffffffffff166014611ad3565b6113e78360001c6020611ad3565b6040516020016113f8929190612fab565b6040516020818303038152906040526040517f08c379a000000000000000000000000000000000000000000000000000000000815260040161143a9190613082565b60405180910390fd5b5050565b6114518282610beb565b6115245760016007600084815260200190815260200160002060000160008373ffffffffffffffffffffffffffffffffffffffff1673ffffffffffffffffffffffffffffffffffffffff16815260200190815260200160002060006101000a81548160ff0219169083151502179055506114c9610fa4565b73ffffffffffffffffffffffffffffffffffffffff168173ffffffffffffffffffffffffffffffffffffffff16837f2f8788117e7eff1d82e926ec794901d17c78024a50270940304540a733656f0d60405160405180910390a45b5050565b6115328282610beb565b156116065760006007600084815260200190815260200160002060000160008373ffffffffffffffffffffffffffffffffffffffff1673ffffffffffffffffffffffffffffffffffffffff16815260200190815260200160002060006101000a81548160ff0219169083151502179055506115ab610fa4565b73ffffffffffffffffffffffffffffffffffffffff168173ffffffffffffffffffffffffffffffffffffffff16837ff6391f5c32d9c69d2a47ea670b442974b53935d1edc7fd64eb21e047a839171b60405160405180910390a45b5050565b61161381611dcd565b50565b8173ffffffffffffffffffffffffffffffffffffffff168373ffffffffffffffffffffffffffffffffffffffff161415611685576040517f08c379a000000000000000000000000000000000000000000000000000000000815260040161167c90613144565b60405180910390fd5b80600560008573ffffffffffffffffffffffffffffffffffffffff1673ffffffffffffffffffffffffffffffffffffffff16815260200190815260200160002060008473ffffffffffffffffffffffffffffffffffffffff1673ffffffffffffffffffffffffffffffffffffffff16815260200190815260200160002060006101000a81548160ff0219169083151502179055508173ffffffffffffffffffffffffffffffffffffffff168373ffffffffffffffffffffffffffffffffffffffff167f17307eab39ab6107e8899845ad3d59bd9653f200f220920489ca2b5937696c3183604051611776919061304c565b60405180910390a3505050565b61178e848484611143565b61179a84848484611e20565b6117d9576040517f08c379a00000000000000000000000000000000000000000000000000000000081526004016117d0906130c4565b60405180910390fd5b50505050565b60606117ea82610f38565b611829576040517f08c379a000000000000000000000000000000000000000000000000000000000815260040161182090613224565b60405180910390fd5b6000600660008481526020019081526020016000208054611849906135e8565b80601f0160208091040260200160405190810160405280929190818152602001828054611875906135e8565b80156118c25780601f10611897576101008083540402835291602001916118c2565b820191906000526020600020905b8154815290600101906020018083116118a557829003601f168201915b5050505050905060006118d3611fb7565b90506000815114156118e957819250505061192c565b60008251111561191e578082604051602001611906929190612f87565b6040516020818303038152906040529250505061192c565b61192784612049565b925050505b919050565b600081600001549050919050565b6001816000016000828254019250508190555050565b61196f8282604051806020016040528060008152506120f0565b5050565b61197c82610f38565b6119bb576040517f08c379a00000000000000000000000000000000000000000000000000000000081526004016119b2906131e4565b60405180910390fd5b806006600084815260200190815260200160002090805190602001906119e292919061267c565b505050565b60007f80ac58cd000000000000000000000000000000000000000000000000000000007bffffffffffffffffffffffffffffffffffffffffffffffffffffffff1916827bffffffffffffffffffffffffffffffffffffffffffffffffffffffff19161480611ab257507f5b5e139f000000000000000000000000000000000000000000000000000000007bffffffffffffffffffffffffffffffffffffffffffffffffffffffff1916827bffffffffffffffffffffffffffffffffffffffffffffffffffffffff1916145b80611ac25750611ac18261214b565b5b9050919050565b505050565b505050565b606060006002836002611ae69190613470565b611af091906133e9565b67ffffffffffffffff811115611b2f577f4e487b7100000000000000000000000000000000000000000000000000000000600052604160045260246000fd5b6040519080825280601f01601f191660200182016040528015611b615781602001600182028036833780820191505090505b5090507f300000000000000000000000000000000000000000000000000000000000000081600081518110611bbf577f4e487b7100000000000000000000000000000000000000000000000000000000600052603260045260246000fd5b60200101907effffffffffffffffffffffffffffffffffffffffffffffffffffffffffffff1916908160001a9053507f780000000000000000000000000000000000000000000000000000000000000081600181518110611c49577f4e487b7100000000000000000000000000000000000000000000000000000000600052603260045260246000fd5b60200101907effffffffffffffffffffffffffffffffffffffffffffffffffffffffffffff1916908160001a90535060006001846002611c899190613470565b611c9391906133e9565b90505b6001811115611d7f577f3031323334353637383961626364656600000000000000000000000000000000600f861660108110611cfb577f4e487b7100000000000000000000000000000000000000000000000000000000600052603260045260246000fd5b1a60f81b828281518110611d38577f4e487b7100000000000000000000000000000000000000000000000000000000600052603260045260246000fd5b60200101907effffffffffffffffffffffffffffffffffffffffffffffffffffffffffffff1916908160001a905350600485901c945080611d78906135be565b9050611c96565b5060008414611dc3576040517f08c379a0000000000000000000000000000000000000000000000000000000008152600401611dba906130a4565b60405180910390fd5b8091505092915050565b611dd6816121b5565b6000600660008381526020019081526020016000208054611df6906135e8565b905014611e1d57600660008281526020019081526020016000206000611e1c9190612702565b5b50565b6000611e418473ffffffffffffffffffffffffffffffffffffffff166122d2565b15611faa578373ffffffffffffffffffffffffffffffffffffffff1663150b7a02611e6a610fa4565b8786866040518563ffffffff1660e01b8152600401611e8c9493929190613000565b602060405180830381600087803b158015611ea657600080fd5b505af1925050508015611ed757506040513d601f19601f82011682018060405250810190611ed49190612b36565b60015b611f5a573d8060008114611f07576040519150601f19603f3d011682016040523d82523d6000602084013e611f0c565b606091505b50600081511415611f52576040517f08c379a0000000000000000000000000000000000000000000000000000000008152600401611f49906130c4565b60405180910390fd5b805181602001fd5b63150b7a0260e01b7bffffffffffffffffffffffffffffffffffffffffffffffffffffffff1916817bffffffffffffffffffffffffffffffffffffffffffffffffffffffff191614915050611faf565b600190505b949350505050565b606060098054611fc6906135e8565b80601f0160208091040260200160405190810160405280929190818152602001828054611ff2906135e8565b801561203f5780601f106120145761010080835404028352916020019161203f565b820191906000526020600020905b81548152906001019060200180831161202257829003601f168201915b5050505050905090565b606061205482610f38565b612093576040517f08c379a000000000000000000000000000000000000000000000000000000000815260040161208a90613264565b60405180910390fd5b600061209d611fb7565b905060008151116120bd57604051806020016040528060008152506120e8565b806120c7846122f5565b6040516020016120d8929190612f87565b6040516020818303038152906040525b915050919050565b6120fa83836124a2565b6121076000848484611e20565b612146576040517f08c379a000000000000000000000000000000000000000000000000000000000815260040161213d906130c4565b60405180910390fd5b505050565b60007f01ffc9a7000000000000000000000000000000000000000000000000000000007bffffffffffffffffffffffffffffffffffffffffffffffffffffffff1916827bffffffffffffffffffffffffffffffffffffffffffffffffffffffff1916149050919050565b60006121c082610a81565b90506121ce81600084611ac9565b6121d9600083610fac565b6001600360008373ffffffffffffffffffffffffffffffffffffffff1673ffffffffffffffffffffffffffffffffffffffff168152602001908152602001600020600082825461222991906134ca565b925050819055506002600083815260200190815260200160002060006101000a81549073ffffffffffffffffffffffffffffffffffffffff021916905581600073ffffffffffffffffffffffffffffffffffffffff168273ffffffffffffffffffffffffffffffffffffffff167fddf252ad1be2c89b69c2b068fc378daa952ba7f163c4a11628f55a4df523b3ef60405160405180910390a46122ce81600084611ace565b5050565b6000808273ffffffffffffffffffffffffffffffffffffffff163b119050919050565b6060600082141561233d576040518060400160405280600181526020017f3000000000000000000000000000000000000000000000000000000000000000815250905061249d565b600082905060005b6000821461236f5780806123589061364b565b915050600a82612368919061343f565b9150612345565b60008167ffffffffffffffff8111156123b1577f4e487b7100000000000000000000000000000000000000000000000000000000600052604160045260246000fd5b6040519080825280601f01601f1916602001820160405280156123e35781602001600182028036833780820191505090505b5090505b60008514612496576001826123fc91906134ca565b9150600a8561240b9190613694565b603061241791906133e9565b60f81b818381518110612453577f4e487b7100000000000000000000000000000000000000000000000000000000600052603260045260246000fd5b60200101907effffffffffffffffffffffffffffffffffffffffffffffffffffffffffffff1916908160001a905350600a8561248f919061343f565b94506123e7565b8093505050505b919050565b600073ffffffffffffffffffffffffffffffffffffffff168273ffffffffffffffffffffffffffffffffffffffff161415612512576040517f08c379a000000000000000000000000000000000000000000000000000000000815260040161250990613204565b60405180910390fd5b61251b81610f38565b1561255b576040517f08c379a000000000000000000000000000000000000000000000000000000000815260040161255290613104565b60405180910390fd5b61256760008383611ac9565b6001600360008473ffffffffffffffffffffffffffffffffffffffff1673ffffffffffffffffffffffffffffffffffffffff16815260200190815260200160002060008282546125b791906133e9565b92505081905550816002600083815260200190815260200160002060006101000a81548173ffffffffffffffffffffffffffffffffffffffff021916908373ffffffffffffffffffffffffffffffffffffffff160217905550808273ffffffffffffffffffffffffffffffffffffffff16600073ffffffffffffffffffffffffffffffffffffffff167fddf252ad1be2c89b69c2b068fc378daa952ba7f163c4a11628f55a4df523b3ef60405160405180910390a461267860008383611ace565b5050565b828054612688906135e8565b90600052602060002090601f0160209004810192826126aa57600085556126f1565b82601f106126c357805160ff19168380011785556126f1565b828001600101855582156126f1579182015b828111156126f05782518255916020019190600101906126d5565b5b5090506126fe9190612742565b5090565b50805461270e906135e8565b6000825580601f10612720575061273f565b601f01602090049060005260206000209081019061273e9190612742565b5b50565b5b8082111561275b576000816000905550600101612743565b5090565b600061277261276d84613344565b61331f565b90508281526020810184848401111561278a57600080fd5b61279584828561357c565b509392505050565b60006127b06127ab84613375565b61331f565b9050828152602081018484840111156127c857600080fd5b6127d384828561357c565b509392505050565b6000813590506127ea81613d29565b92915050565b6000813590506127ff81613d40565b92915050565b60008135905061281481613d57565b92915050565b60008135905061282981613d6e565b92915050565b60008151905061283e81613d6e565b92915050565b600082601f83011261285557600080fd5b813561286584826020860161275f565b91505092915050565b600082601f83011261287f57600080fd5b813561288f84826020860161279d565b91505092915050565b6000813590506128a781613d85565b92915050565b6000602082840312156128bf57600080fd5b60006128cd848285016127db565b91505092915050565b600080604083850312156128e957600080fd5b60006128f7858286016127db565b9250506020612908858286016127db565b9150509250929050565b60008060006060848603121561292757600080fd5b6000612935868287016127db565b9350506020612946868287016127db565b925050604061295786828701612898565b9150509250925092565b6000806000806080858703121561297757600080fd5b6000612985878288016127db565b9450506020612996878288016127db565b93505060406129a787828801612898565b925050606085013567ffffffffffffffff8111156129c457600080fd5b6129d087828801612844565b91505092959194509250565b600080604083850312156129ef57600080fd5b60006129fd858286016127db565b9250506020612a0e858286016127f0565b9150509250929050565b60008060408385031215612a2b57600080fd5b6000612a39858286016127db565b925050602083013567ffffffffffffffff811115612a5657600080fd5b612a628582860161286e565b9150509250929050565b60008060408385031215612a7f57600080fd5b6000612a8d858286016127db565b9250506020612a9e85828601612898565b9150509250929050565b600060208284031215612aba57600080fd5b6000612ac884828501612805565b91505092915050565b60008060408385031215612ae457600080fd5b6000612af285828601612805565b9250506020612b03858286016127db565b9150509250929050565b600060208284031215612b1f57600080fd5b6000612b2d8482850161281a565b91505092915050565b600060208284031215612b4857600080fd5b6000612b568482850161282f565b91505092915050565b600060208284031215612b7157600080fd5b600082013567ffffffffffffffff811115612b8b57600080fd5b612b978482850161286e565b91505092915050565b600060208284031215612bb257600080fd5b6000612bc084828501612898565b91505092915050565b612bd2816134fe565b82525050565b612be181613510565b82525050565b612bf08161351c565b82525050565b6000612c01826133a6565b612c0b81856133bc565b9350612c1b81856020860161358b565b612c2481613781565b840191505092915050565b6000612c3a826133b1565b612c4481856133cd565b9350612c5481856020860161358b565b612c5d81613781565b840191505092915050565b6000612c73826133b1565b612c7d81856133de565b9350612c8d81856020860161358b565b80840191505092915050565b6000612ca66020836133cd565b9150612cb182613792565b602082019050919050565b6000612cc96032836133cd565b9150612cd4826137bb565b604082019050919050565b6000612cec6025836133cd565b9150612cf78261380a565b604082019050919050565b6000612d0f601c836133cd565b9150612d1a82613859565b602082019050919050565b6000612d326024836133cd565b9150612d3d82613882565b604082019050919050565b6000612d556019836133cd565b9150612d60826138d1565b602082019050919050565b6000612d78602c836133cd565b9150612d83826138fa565b604082019050919050565b6000612d9b6038836133cd565b9150612da682613949565b604082019050919050565b6000612dbe602a836133cd565b9150612dc982613998565b604082019050919050565b6000612de16029836133cd565b9150612dec826139e7565b604082019050919050565b6000612e04602e836133cd565b9150612e0f82613a36565b604082019050919050565b6000612e276020836133cd565b9150612e3282613a85565b602082019050919050565b6000612e4a6031836133cd565b9150612e5582613aae565b604082019050919050565b6000612e6d602c836133cd565b9150612e7882613afd565b604082019050919050565b6000612e90602f836133cd565b9150612e9b82613b4c565b604082019050919050565b6000612eb36021836133cd565b9150612ebe82613b9b565b604082019050919050565b6000612ed66031836133cd565b9150612ee182613bea565b604082019050919050565b6000612ef96017836133de565b9150612f0482613c39565b601782019050919050565b6000612f1c6030836133cd565b9150612f2782613c62565b604082019050919050565b6000612f3f6011836133de565b9150612f4a82613cb1565b601182019050919050565b6000612f62602f836133cd565b9150612f6d82613cda565b604082019050919050565b612f8181613572565b82525050565b6000612f938285612c68565b9150612f9f8284612c68565b91508190509392505050565b6000612fb682612eec565b9150612fc28285612c68565b9150612fcd82612f32565b9150612fd98284612c68565b91508190509392505050565b6000602082019050612ffa6000830184612bc9565b92915050565b60006080820190506130156000830187612bc9565b6130226020830186612bc9565b61302f6040830185612f78565b81810360608301526130418184612bf6565b905095945050505050565b60006020820190506130616000830184612bd8565b92915050565b600060208201905061307c6000830184612be7565b92915050565b6000602082019050818103600083015261309c8184612c2f565b905092915050565b600060208201905081810360008301526130bd81612c99565b9050919050565b600060208201905081810360008301526130dd81612cbc565b9050919050565b600060208201905081810360008301526130fd81612cdf565b9050919050565b6000602082019050818103600083015261311d81612d02565b9050919050565b6000602082019050818103600083015261313d81612d25565b9050919050565b6000602082019050818103600083015261315d81612d48565b9050919050565b6000602082019050818103600083015261317d81612d6b565b9050919050565b6000602082019050818103600083015261319d81612d8e565b9050919050565b600060208201905081810360008301526131bd81612db1565b9050919050565b600060208201905081810360008301526131dd81612dd4565b9050919050565b600060208201905081810360008301526131fd81612df7565b9050919050565b6000602082019050818103600083015261321d81612e1a565b9050919050565b6000602082019050818103600083015261323d81612e3d565b9050919050565b6000602082019050818103600083015261325d81612e60565b9050919050565b6000602082019050818103600083015261327d81612e83565b9050919050565b6000602082019050818103600083015261329d81612ea6565b9050919050565b600060208201905081810360008301526132bd81612ec9565b9050919050565b600060208201905081810360008301526132dd81612f0f565b9050919050565b600060208201905081810360008301526132fd81612f55565b9050919050565b60006020820190506133196000830184612f78565b92915050565b600061332961333a565b9050613335828261361a565b919050565b6000604051905090565b600067ffffffffffffffff82111561335f5761335e613752565b5b61336882613781565b9050602081019050919050565b600067ffffffffffffffff8211156133905761338f613752565b5b61339982613781565b9050602081019050919050565b600081519050919050565b600081519050919050565b600082825260208201905092915050565b600082825260208201905092915050565b600081905092915050565b60006133f482613572565b91506133ff83613572565b9250827fffffffffffffffffffffffffffffffffffffffffffffffffffffffffffffffff03821115613434576134336136c5565b5b828201905092915050565b600061344a82613572565b915061345583613572565b925082613465576134646136f4565b5b828204905092915050565b600061347b82613572565b915061348683613572565b9250817fffffffffffffffffffffffffffffffffffffffffffffffffffffffffffffffff04831182151516156134bf576134be6136c5565b5b828202905092915050565b60006134d582613572565b91506134e083613572565b9250828210156134f3576134f26136c5565b5b828203905092915050565b600061350982613552565b9050919050565b60008115159050919050565b6000819050919050565b60007fffffffff0000000000000000000000000000000000000000000000000000000082169050919050565b600073ffffffffffffffffffffffffffffffffffffffff82169050919050565b6000819050919050565b82818337600083830152505050565b60005b838110156135a957808201518184015260208101905061358e565b838111156135b8576000848401525b50505050565b60006135c982613572565b915060008214156135dd576135dc6136c5565b5b600182039050919050565b6000600282049050600182168061360057607f821691505b6020821081141561361457613613613723565b5b50919050565b61362382613781565b810181811067ffffffffffffffff8211171561364257613641613752565b5b80604052505050565b600061365682613572565b91507fffffffffffffffffffffffffffffffffffffffffffffffffffffffffffffffff821415613689576136886136c5565b5b600182019050919050565b600061369f82613572565b91506136aa83613572565b9250826136ba576136b96136f4565b5b828206905092915050565b7f4e487b7100000000000000000000000000000000000000000000000000000000600052601160045260246000fd5b7f4e487b7100000000000000000000000000000000000000000000000000000000600052601260045260246000fd5b7f4e487b7100000000000000000000000000000000000000000000000000000000600052602260045260246000fd5b7f4e487b7100000000000000000000000000000000000000000000000000000000600052604160045260246000fd5b6000601f19601f8301169050919050565b7f537472696e67733a20686578206c656e67746820696e73756666696369656e74600082015250565b7f4552433732313a207472616e7366657220746f206e6f6e20455243373231526560008201527f63656976657220696d706c656d656e7465720000000000000000000000000000602082015250565b7f4552433732313a207472616e736665722066726f6d20696e636f72726563742060008201527f6f776e6572000000000000000000000000000000000000000000000000000000602082015250565b7f4552433732313a20746f6b656e20616c7265616479206d696e74656400000000600082015250565b7f4552433732313a207472616e7366657220746f20746865207a65726f2061646460008201527f7265737300000000000000000000000000000000000000000000000000000000602082015250565b7f4552433732313a20617070726f766520746f2063616c6c657200000000000000600082015250565b7f4552433732313a206f70657261746f7220717565727920666f72206e6f6e657860008201527f697374656e7420746f6b656e0000000000000000000000000000000000000000602082015250565b7f4552433732313a20617070726f76652063616c6c6572206973206e6f74206f7760008201527f6e6572206e6f7220617070726f76656420666f7220616c6c0000000000000000602082015250565b7f4552433732313a2062616c616e636520717565727920666f7220746865207a6560008201527f726f206164647265737300000000000000000000000000000000000000000000602082015250565b7f4552433732313a206f776e657220717565727920666f72206e6f6e657869737460008201527f656e7420746f6b656e0000000000000000000000000000000000000000000000602082015250565b7f45524337323155524953746f726167653a2055524920736574206f66206e6f6e60008201527f6578697374656e7420746f6b656e000000000000000000000000000000000000602082015250565b7f4552433732313a206d696e7420746f20746865207a65726f2061646472657373600082015250565b7f45524337323155524953746f726167653a2055524920717565727920666f722060008201527f6e6f6e6578697374656e7420746f6b656e000000000000000000000000000000602082015250565b7f4552433732313a20617070726f76656420717565727920666f72206e6f6e657860008201527f697374656e7420746f6b656e0000000000000000000000000000000000000000602082015250565b7f4552433732314d657461646174613a2055524920717565727920666f72206e6f60008201527f6e6578697374656e7420746f6b656e0000000000000000000000000000000000602082015250565b7f4552433732313a20617070726f76616c20746f2063757272656e74206f776e6560008201527f7200000000000000000000000000000000000000000000000000000000000000602082015250565b7f4552433732313a207472616e736665722063616c6c6572206973206e6f74206f60008201527f776e6572206e6f7220617070726f766564000000000000000000000000000000602082015250565b7f416363657373436f6e74726f6c3a206163636f756e7420000000000000000000600082015250565b7f4552433732314275726e61626c653a2063616c6c6572206973206e6f74206f7760008201527f6e6572206e6f7220617070726f76656400000000000000000000000000000000602082015250565b7f206973206d697373696e6720726f6c6520000000000000000000000000000000600082015250565b7f416363657373436f6e74726f6c3a2063616e206f6e6c792072656e6f756e636560008201527f20726f6c657320666f722073656c660000000000000000000000000000000000602082015250565b613d32816134fe565b8114613d3d57600080fd5b50565b613d4981613510565b8114613d5457600080fd5b50565b613d608161351c565b8114613d6b57600080fd5b50565b613d7781613526565b8114613d8257600080fd5b50565b613d8e81613572565b8114613d9957600080fd5b5056fea2646970667358221220430baebe5526fbddb386eda9c0d8ea416141ed34e69fbdb4216e165389255b7c64736f6c63430008040033",
  "linkReferences": {},
  "deployedLinkReferences": {}
}